:020000041A00E0
:10000000008000107105001A7901001A7B01001AA6
:100010007D01001A7F01001A8101001A1E73FF532F
:100020000000000000000000000000008301001A32
:100030008501001A000000008701001AED17001A60
:10004000BB01001ABB01001ABB01001A000000002E
:10005000BB01001ABB01001ABB01001ABB01001A48
:100060003D19001ABB01001ABB01001ABB01001A9E
:10007000BB01001ABB01001ABB01001ABB01001A28
:10008000BB01001ABB01001ABB01001ABB01001A18
:10009000BB01001ABB01001ABB01001ABB01001A08
:1000A000BB01001ABB01001ABB01001ABB01001AF8
:1000B000BB01001ABB01001ABB01001ABB01001AE8
:1000C000BB01001ABB01001ABB01001ABB01001AD8
:1000D000BB01001ABB01001ABB01001ABB01001AC8
:1000E000BB01001ABB01001ABB01001ABB01001AB8
:1000F00000000000BB01001ABB01001ABB01001A7E
:1001000000000000BB01001ABB01001ABB01001A6D
:10011000BB01001AD421001A0000001048000000A2
:10012000D421001A0000081000000000D421001A99
:100130000000002000000000D421001A00800020F0
:1001400000000000D421001A00C0002000000000C0
:100150004800001028000000000008100000000007
:1001600000000020000000000080002000000000CF
:1001700000C0002000000000FEE7FEE7FEE7FEE70B
:10018000FEE7FEE7FEE7FEE7FEE7002393420AD222
:1001900010B450F8044B41F8044B04339342F8D3A5
:1001A0005DF8044B7047704700238B4204D2002255
:1001B00040F8042B0433F8E77047FEE7FFFFFFFF2A
:1001C000FFFFFFFFFFFFFFFFFFFFFFFFFFFFFFFF3F
:1001D000FFFFFFFFFFFFFFFFFFFFFFFFFFFFFFFF2F
:1001E000FFFFFFFFFFFFFFFFFFFFFFFFFFFFFFFF1F
:1001F000FFFFFFFFFFFFFFFFFFFFFFFFFFFFFFFF0F
:10020000FFFFFFFFFFFFFFFFFFFFFFFFFFFFFFFFFE
:10021000FFFFFFFFFFFFFFFFFFFFFFFFFFFFFFFFEE
:10022000FFFFFFFFFFFFFFFFFFFFFFFFFFFFFFFFDE
:10023000FFFFFFFFFFFFFFFFFFFFFFFFFFFFFFFFCE
:10024000FFFFFFFFFFFFFFFFFFFFFFFFFFFFFFFFBE
:10025000FFFFFFFFFFFFFFFFFFFFFFFFFFFFFFFFAE
:10026000FFFFFFFFFFFFFFFFFFFFFFFFFFFFFFFF9E
:10027000FFFFFFFFFFFFFFFFFFFFFFFFFFFFFFFF8E
:10028000FFFFFFFFFFFFFFFFFFFFFFFFFFFFFFFF7E
:10029000FFFFFFFFFFFFFFFFFFFFFFFFFFFFFFFF6E
:1002A000FFFFFFFFFFFFFFFFFFFFFFFFFFFFFFFF5E
:1002B000FFFFFFFFFFFFFFFFFFFFFFFFFFFFFFFF4E
:1002C000FFFFFFFFFFFFFFFFFFFFFFFFFFFFFFFF3E
:1002D000FFFFFFFFFFFFFFFFFFFFFFFFFFFFFFFF2E
:1002E000FFFFFFFFFFFFFFFFFFFFFFFFFFFFFFFF1E
:1002F000FFFFFFFFFFFFFFFFFFFFFFFFFFFFFFFF0E
:1003000008B501F029FB00F00CF80121282001F0CC
:10031000B3F9002000F08EF80220002101F056FB16
:10032000FEE708B5002000F0CDF84FF4E1310320DE
:1003300001F09EFA08BD38B505460024204600F0BD
:10034000E9F80220002101F041FB062000F0EEF860
:100350000220002101F03AFB012000F0DBF802202E
:10036000002101F033FB204600F0D4F802200021E8
:1003700001F02CFB022000F0D9F80220002101F04E
:1003800025FB204600F0D2F80220002101F01EFBE0
:10039000204600F0CBF80220002101F017FB204698
:1003A00000F0C4F80220002101F010FB284600F004
:1003B000BDF80220002101F009FB012000F0AAF89D
:1003C0000220002101F002FB204638BD10B50020BC
:1003D00000F0A0F80220002101F0F8FA032000F05C
:1003E000A5F80220002101F0F1FA002000F09EF8AB
:1003F0000220002101F0EAFA002000F097F8022024
:10040000002101F0E3FA002000F090F80220002122
:1004100001F0DCFA00F090F8C4B20220002101F0F3
:10042000D5FA012000F076F80220002101F0CEFA82
:10043000204610BD30B583B01E4C2146032001F08C
:1004400071FA1D49032001F06DFA2146032001F0E5
:1004500069FA1A49032001F065FA1949032001F0ED
:1004600061FA2146032001F05DFA0024022C18D81D
:100470000DF10701032001F039FA9DF807502420FF
:1004800001F02FF90028F1D101342946032001F0B1
:100490003CFA2846FFF74FFFC820002101F096FAEA
:1004A000E4E70749032001F03DFAFFF78FFF03B0AF
:1004B00030BD00BFF01D001A501E001A9C1E001A0D
:1004C000DC1E001A08B10020704710B50E4B002248
:1004D000C3F89027C521C3F88C100521C3F89010EC
:1004E000C3F80423094942F20C028B5843F001037C
:1004F0008B50074C204600F09BFA636843F00203E0
:100500006360012010BD00BF0060084000400F4044
:1005100000500C4008B520B90021202001F0ACF8B3
:1005200008BD0121202001F0A7F8F9E7014B9860F0
:10053000704700BF00500C4000B587B00023019306
:100540000293039304930123059301A9064800F045
:10055000FCF918B9002007B05DF804FB01212B203D
:1005600001F08AF8F6E700BF00500C407047FFFF2B
:1005700010B572B6194B1A4A1A600433194A1A6038
:10058000002305E0184A4FF0FF3142F823100133F1
:10059000072BF7D962B6154B07E003F10C049A68F4
:1005A00059681868FFF7F1FD2346114A9342F4D3C6
:1005B00006E01C46596854F8080BFFF7F5FD234682
:1005C0000C4A9342F5D300F03DFF01F09DFBFFF78D
:1005D000CDFFFFF795FE30BFFDE700BF00310540BE
:1005E0000010DF10FFF7DF0180E200E01401001AC5
:1005F0005001001A7801001A7047704700231C2B25
:1006000012D810B4094A02EB830112F823404A7849
:10061000488802EB4412064941F8220001331C2BA2
:10062000F0D95DF8044B7047704700BF241F001AD3
:100630000060084010B5174AD2F8203123F4704307
:1006400043F41043C2F82031D2F8243123F470432C
:1006500043F41043C2F8243101220F49062000F070
:10066000A7FA00244CB10B4B5A6822F00C025A60D6
:100670005A6842F003025A6010BD084800EB84013A
:1006800001238A78497810F8240000F069FD0134CC
:10069000E8E700BF0030044000CB280C201F001A00
:1006A00008B5FFF7ABFFFFF7C5FF08BD0022052A1D
:1006B00019D870B40C4911F8125001EB42014C7872
:1006C0000A4B05F5006653F826100120A0400143AF
:1006D00043F8261003EB4513002119550132052A72
:1006E000E8D970BC70477047A41F001A00400F4043
:1006F0000023032B16D830B40B4911F8132001EB5B
:1007000043014D78094C02F5006254F82210012093
:10071000A84021EA000144F822100133032BEBD951
:1007200030BC7047704700BF9C1F001A00400F404C
:100730000023082B16D830B40B4911F8132001EB15
:1007400043014D78094C02F5006254F82210012053
:10075000A84021EA000144F822100133082BEBD90C
:1007600030BC7047704700BFB01F001A00400F40F8
:1007700010B582B0084C6946204600F0D9F9074A06
:100780006946204600F0F4F900226946204600F050
:1007900008FA02B010BD00BF00300E40801A0600FB
:1007A00010B50B4C204600F043F9636823F00403B6
:1007B0006360236823F0FF0343F0070323600549C8
:1007C000204600F016F9636843F00203636010BD31
:1007D00000500C40A086010008B5002000F054F93C
:1007E000044B40F60802C3F8842C0349002000F0B3
:1007F0005DF908BD0060084040420F0010B5074C8D
:10080000204600F067FD4FF4E131204600F0ACFDDA
:100810000323E3600123E36510BD00BF00100C401B
:1008200008B5FFF7EBFF094800F05CF9FFF780FF20
:10083000FFF79EFFFFF7B4FFFFF7CEFFFFF736FF8E
:10084000FFF756FF00F060FA08BD00BF00400F4000
:1008500008B5FFF7D3FF08BD0B6833B14A689B5A50
:1008600083604B6802334B6070474FF6FF738360C1
:10087000F7E70B6833B14A689B5C83604B680133D0
:100880004B607047FF238360F8E7C36813F0040FE1
:100890001BD0CA680B699A4216D210B40AE0CB6822
:1008A0000233CB60C36813F0040F0AD0CA680B6927
:1008B0009A4206D283689BB28C68002CEFD0A35278
:1008C000EDE75DF8044B704770477047C36813F05D
:1008D000040F1AD0CB680A69934215D210B40AE00B
:1008E000CB680133CB60C36813F0040F09D0CB6829
:1008F0000A69934205D284688A68002AF0D0D454E9
:10090000EEE75DF8044B704770477047034B984221
:1009100001D083207047A520704700BF00500C40D5
:10092000044B984202D040F2022070474FF4F1701D
:10093000704700BF00500C40036823F47F43090256
:1009400089B2194301600261704738B504460D460B
:10095000E36813F0040F01D0A368F9E703232362CF
:10096000236813F0080F08D122E0A36913F0010FE8
:1009700039D129462046FFF788FFEA682B699A4259
:1009800002D36A68934226D9E26812F0020FECD0D3
:100990006A689A42E9D229462046FFF75DFFE4E7FC
:1009A000A36913F0010F20D129462046FFF78EFFDF
:1009B000EA682B699A4202D36A6893420BD9E268CB
:1009C00012F0020FECD06A689A42E9D2294620461A
:1009D000FFF74FFFE4E72B680BB1686804E0AB68F2
:1009E0002BB1E86800E0002038BD0020FCE70020C3
:1009F000FAE770B506460D46FFF792FF00F02EFCB1
:100A000002224FF0FF33002100E02146AB420BD918
:100A10004C1C02FB04F3B0FBF3F39D42F6D2FF2C17
:100A2000F3D902320021F1E73046FFF785FF70BDB0
:100A300010B50446FFF76AFF00F0F6FB2046FFF70B
:100A40006FFF00F0F1FB636823F004036360236829
:100A500023F0FF0343F00703236002492046FFF71A
:100A6000C8FF10BD40420F00012909D1C0EBC000F2
:100A70008200044B13441A69137DDBB2042BFBD0B4
:100A8000704700BF0000001070B50546064EC40058
:100A9000221A93003344988800F0C6FB641BA3001D
:100AA000F3586C229A6170BD000000102DE9F041EE
:100AB0000C460B4EC5002B1A4FEA830806EB0803C1
:100AC000988800F0CBFBB0FBF4F056F808304208F1
:100AD0001A6156F808301A69801A5861BDE8F08129
:100AE000000000107047FFFF034B984201D0032025
:100AF00070470420704700BF00400E4070B50D469F
:100B000014461E46FFF7F0FF00F0A8FB55B104FBAA
:100B100006F404EB40006400B0FBF4F0C0B201380E
:100B2000C0B270BD04EB840304EB4304F1E7FFFFA4
:100B300038B505460C46FFF7D7FF01231A4619467C
:100B400000F054FB0021E960084A226021716171C4
:100B50000B232846FFF7D2FF000240F40013207950
:100B6000400400F460201843286038BD801A060055
:100B700070B505460E46046824F46F2424F47064AE
:100B80000A600B79C3F10B03DBB24979FFF7B6FFBB
:100B900044EA002033795B0403F4602303432B60B1
:100BA00070BD08B50A710A68FFF7E2FF08BDFFFFD4
:100BB00070B58AB005460E4614464CF25033099380
:100BC000062818D0002301222946042000F0C8FA84
:100BD0004A4A536C43F0010353648DF8085001A94D
:100BE000304600F035FA464B9E4216D9019B13F071
:100BF000400F03D0FEE700F08DF9E3E713F0800F1C
:100C000005D023F0800301930025012607E0049B13
:100C1000013304930125002601E000252E469DF8AE
:100C20000820019B43EA0263059A43EA0243039AC0
:100C300043EA0233049A43EA022343F400632F4A4F
:100C400053642E4B1B6C13F0010FFAD000230122CA
:100C50000921042000F084FA06B34CF250330993C2
:100C6000099B5A1E0992002BFAD1019B43F0800385
:100C700001939DF8082043EA0263059A43EA024380
:100C8000039A43EA0233049A43EA022343F40063DB
:100C90001A4A5364002C2ED10AB070BD002DF9D031
:100CA0004CF250330993099B5A1E0992002BFAD13A
:100CB000049B5A1E04929DF80810019B43EA0163AD
:100CC000059943EA0143039943EA013343EA0223C6
:100CD00043F40063094A5364DCE70A4800EB8401EB
:100CE000CB788A78497810F8240000F039FA01347A
:100CF000112CF2D9D0E70024FAE700BF000005402C
:100D000080778E06C81F001A08B5692000F0A6FA81
:100D1000014B186008BD00BF68000010F0B40B68FC
:100D200013F0800F02D023F040030B60074601252B
:100D30003AE04B6903FB02F3B3FBF5F31CE01C46FE
:100D4000B0EB040C27D4674506D98D60771CCF60C3
:100D50000A618C61CB6167460132B2F5807F1DDC90
:100D60000C6814F0400FE4D0731C02FA03FC4B69CA
:100D700003FB0CF3B3FBF5F3DFF838C06345EBD9A5
:100D8000DFF834C0634509D814F0800FD7D1741C44
:100D900023FA04F4D4E7CCF1000CD4E70136032E97
:100DA00001DC0122D9E70135042D01DC0026F6E73C
:100DB000F0BC7047FF5E4C0900D01213F0B599B03B
:100DC00005460C465C22002101A800F0C1FF8023EB
:100DD00000936369059323798DF8043069462846AA
:100DE000FFF79CFF069BAB4227D0EB1A2ED41E4682
:100DF000109B23F0400310936369159323798DF8BA
:100E0000443010A92846FFF789FF169BAB421FD03C
:100E1000EB1A25D41F462B4B9D4223D90E9BED1A6E
:100E200033D4AE423BDCBE4231DC6D460FCD0FC445
:100E300095E80F0084E80F0006E06D460FCD0FC463
:100E400095E80F0084E80F0019B0F0BD5B42CEE7D3
:100E500010AD0FCD0FC495E80F0084E80F00F3E745
:100E60005B42D7E74023089363690D9308A928469E
:100E7000FFF754FF0E9BAB42D0D108AD0FCD0FC48E
:100E800095E80F0084E80F00DEE76D42C9E710AD7A
:100E90000FCD0FC495E80F0084E80F00D4E7AF42F0
:100EA00007DB08AD0FCD0FC495E80F0084E80F00F5
:100EB000CAE710AD0FCD0FC495E80F0084E80F000E
:100EC000C2E700BF80778E0630B4054600231C20A1
:100ED00000E001331C2818D103EB430251000C4AF7
:100EE0000A441479844210D003EB43014A000849B4
:100EF0008A5AAA42EDD803EB43025100044A0A443D
:100F00005288AA42E5D32046E4E730BC704700BFD0
:100F10001C20001A82B04FF47A7301930D4A936932
:100F200023F0020192698A4201D00A4A916123F0BA
:100F30000303094A1168094A914201D943F00403A5
:100F4000044A9361019B5A1E0192002BFAD102B010
:100F5000704700BF00000540C41F001AFF2C31017C
:100F60001230054B53F8200010F0010F02D1C0F3EE
:100F700004607047112070470000054000F1120224
:100F8000034B53F82220034B185C00EA9200704791
:100F9000000005401420001A08B510280AD8DFE820
:100FA00000F0440B0D18210924272A2D090930349B
:100FB000383C400000203AE01E4838E01E4BD3F891
:100FC0002C3103F00703042B01D01C482FE0002034
:100FD0002DE0194BD3F82C3103F00703042B27D055
:100FE000164824E0164B186821E0164B18681EE0DE
:100FF000154B18681BE0144B586818E000F068F8AF
:1010000015E0002100F09AF811E0012100F096F8B7
:101010000DE0022100F092F809E0032100F08EF8C3
:1010200005E0042100F08AF801E04FF4004008BD1B
:101030000648FCE7001BB7000030044040787D0103
:10104000981F001AC41F001A4800001080F0FA020E
:1010500038B505460C460879FFF79EFF6061194BCD
:101060002B44194A934221D818B3802323600023CC
:10107000A360E360B5FBF0F32361144A954203D902
:1010800003FB00F0A84207D021462846FFF796FE52
:10109000A3688BB1013BA360236983B1E2680AB105
:1010A000013AE260013B2361002038BD4FF0FF3080
:1010B000FBE74FF0FF30F8E74FF0FF30F5E74FF078
:1010C000FF30F2E7103A6BFF1005940BFF5E4C09FE
:1010D00030B583B0174D6C6CC4F30360FFF75CFF51
:1010E000154B1B6801932B6C13F0010F20D0C4F338
:1010F0000743C4F30132C4F30121C4F38015013363
:1011000001320DF1080C614411F8041C14F0800F39
:1011100008D13DB94900B3FBF1F3B0FBF2F000FB9D
:1011200003F003E0B0FBF2F003FB00F003B030BDCE
:101130000020FBE7000005401020001A38B50C46DF
:101140000846FFF70DFF05462046FFF717FF044648
:101150002846FFF721FF0134B0FBF4F038BDFFFF54
:1011600030B400F11604A40004F1804404F5A02476
:1011700064681B2813D811291AD00E4D25400AB1D6
:1011800045F400650BB145F0010545EA01651630EF
:10119000800000F1804000F5A020456008E044F0A8
:1011A00001041630800000F1804000F5A02044606A
:1011B00030BC7047FEF7FFE01B280CD816308000CB
:1011C00000F1804000F5A020406810F0010F04D12C
:1011D000C0F304607047112070471120704708B5B4
:1011E000FFF7EAFFFFF7D8FE08BDFFFF71B9012145
:1011F0000AB141F00401022B0AD0B0F5A17F0AD355
:10120000A0F59170064B43F8301070470321EFE7CB
:1012100041F02001F1E72030024B43F830107047D5
:101220000020054000100540B0F5A17F09D3094A10
:10123000A0F5917052F8303043F0010342F830309D
:101240007047054A203052F8303043F0010342F82D
:1012500030307047002005400010054010B5B0F553
:10126000A17F09D3A0F591730D4A52F8334014F0D1
:10127000010F07D1002010BD00F12003094A52F8E8
:101280003340F4E7FFF720FEFFF7A9FF14F0E00F6B
:1012900003D10123B0FBF3F0EDE70223FAE700BF2F
:1012A0000020054000100540094B984209D003F585
:1012B0008053984207D0A3F58023984205D00020A0
:1012C000704702207047032070470120704700BF1D
:1012D00000100C4030B583B00446FFF7E5FF012352
:1012E0001A4619460E4D35F81000FFF77FFF072309
:1012F000A3600023E3656360E3602362E3646365E6
:101300002365084B9C4206D00323E3601023A362AD
:10131000019B03B030BD00232361A3690193F3E770
:101320009020001A0020084038B505460C46FFF70B
:10133000BBFF0C4B33F81000FFF790FF2301B0FB0D
:10134000F3F3D9B2EA6842F08002EA602960C3F39D
:1013500007226A60EA6822F08002EA60B0FBF3F0DC
:10136000000938BD8820001A2DE9F04F83B00190A4
:101370008846FFF799FF324B33F81000FFF76EFFF6
:1013800006464FF0FF3701244FF0000BA246D94626
:101390002AE042424B1C17E00AB31746AB46A2466E
:1013A00099460135AC421ED933093007A4FB000130
:1013B00004FB0311621908FB02F2002300F022FB78
:1013C00002460B460028E4DB9742EAD3002BE8D024
:1013D000190CE6D1022BDFD8002DDDD0E1E717464E
:1013E000AB46A246994601341FB10F2C01D8002507
:1013F000D8E7B9F1000F1ED0019A1146D36843F027
:101400008003D3605FFA89F31360C9F30723536045
:10141000D36823F08003D3604FEA0A13DBB20BF0EA
:101420000F0213438B6233090AFB03F3DA4409FB0F
:101430000AF9B3FBF9F9484603B0BDE8F08F00BFE5
:101440008820001A08B50B4A0B4B9A6003F50C7301
:101450001B6903F47F63202B04D0FFF721F9FFF70A
:10146000DFF908BD044AD2F8883043F47003C2F8AB
:101470008830F2E70000001A00ED00E0044B18602D
:10148000044A136843F0010313600120704700BF52
:1014900038000010001000E030B40B4D00EB80006D
:1014A0002C182856087094F90110117094F9022034
:1014B0001A7094F90320029B1A7094F90420039B7C
:1014C0001A7030BC704700BF9820001A10F1020F4C
:1014D00000F0C780B0F1FF3F00F0C58070B584B068
:1014E0000C4600238DF80F308DF80E308DF80D303E
:1014F0008DF80C308DF80B300DF10B03019303AB1D
:1015000000930DF10D030DF10E020DF10F01FFF728
:10151000C3FF052C00F2A980DFE804F0098127450C
:1015200063035348FFF7DEFA012004B070BD9DF855
:101530000F109DF80E309DF80D2042F0D00203EB05
:1015400041134C4941F823209DF80C309DF90B20A4
:10155000012000FA02F1464C03F5006354F8232001
:1015600022EA010244F82320DFE79DF80F109DF8DE
:101570000E309DF80D2042F0C00203EB41133D49AF
:1015800041F823209DF80C309DF90B20012000FA32
:1015900002F1374C03F5006354F8232022EA0102DC
:1015A00044F82320C1E79DF80F109DF80E309DF8F8
:1015B0000D2042F0D80203EB41132E4941F82320BD
:1015C0009DF80C309DF90B20012000FA02F1284C07
:1015D00003F5006354F8232022EA010244F8232093
:1015E000A3E79DF80F109DF80E309DF80D2042F0F6
:1015F000C80203EB41131F4941F823209DF80C302A
:101600009DF90B20012000FA02F1194C03F500634B
:1016100054F8232022EA010244F8232085E79DF8AC
:101620000F109DF80E309DF80D2042F0D00203EB14
:101630004113104941F823209DF80C409DF90B20DF
:10164000012000FA02F10A4B04F5006553F8256009
:10165000314343F82510D2B203EB441300219954CF
:1016600063E7002070470020704700205DE700BF5F
:1016700000400F400060084010F1020F2DD0B0F183
:10168000FF3F2CD010B584B00C4600238DF80F30EE
:101690008DF80E308DF80D308DF80C308DF80B3044
:1016A0000DF10B03019303AB00930DF10D030DF14D
:1016B0000E020DF10F01FFF7EFFE9DF80C309DF8C3
:1016C0000B20211C18BF01215B0103F1402303F50E
:1016D00070239954012004B010BD002070470020F1
:1016E000704710F1020F2CD0B0F1FF3F2BD000B5A6
:1016F00085B000238DF80F308DF80E308DF80D3049
:101700008DF80C308DF80B300DF10B03019303AB0A
:1017100000930DF10D030DF10E020DF10F01FFF716
:10172000BBFE9DF90C309DF80B205B0103F14023BB
:1017300003F57023985C003018BF012005B05DF8F8
:1017400004FB0120704700207047FFFF014BD3E9E5
:10175000000170475800001018B1044B07221A60AE
:101760007047024B00221A60704700BF10E000E093
:1017700038B550EA01042AD010F1FF3241F1FF33AD
:10178000002B08BF322A27D2144BC3E90001144BA7
:101790001B68A3FB004503FB01554FF47A7200233D
:1017A0002046294600F02EF90138B0F1807F09D299
:1017B0000C4B58600C4AE02182F8231000229A60FA
:1017C00007221A600120FFF7C7FF012038BD002063
:1017D000FFF7C2FF0020F9E70020F7E74000001004
:1017E0006800001010E000E000ED00E008B5074AD6
:1017F00013685168013341F1000113605160044BDB
:101800001B6813B1034A1068984708BD58000010C0
:10181000600000105000001000EB40008300034AFD
:10182000D358586900F00100704700BF8021001AAA
:1018300000EB40008300034AD358586900F02000B1
:10184000704700BF8021001A00EB40008300024A6D
:10185000D3581868C0B270478021001A00EB4000CE
:101860008300024AD3581960704700BF8021001AD4
:101870002DE9F84380468946194C45002A18930003
:10188000E618E7583846FFF725FD49463846FFF782
:101890004BFD0723BB603B680123FB6530797379FF
:1018A000B27942F018020F4903EB401341F82320AC
:1018B000F079337A727A42F0D00203EB401341F8A8
:1018C0002320B8F1010F01D0BDE8F883064AD36C9C
:1018D00043F03003D3641A22C1F80823F4E700BFB1
:1018E0008021001A006008400010084038B5054605
:1018F0000C46FFF791FF034608B9184638BD284645
:10190000FFF7A2FF20700123F7E738B504460D4624
:101910002046FFF78DFF0028FAD029462046FFF722
:101920009DFF38BD38B505460C46217821B12846C3
:10193000FFF7EBFF0134F8E738BDFFFF08B5044BB4
:101940001B681B68DB68034A1068984708BD00BF26
:101950006C0000106400001008B5FFF7D5F91A4BB1
:101960001868FFF78BFD01200021FFF701FF05211B
:101970000020FFF7ABFD00212420FFF7A7FD002189
:101980002520FFF7A3FD00212620FFF79FFD002162
:101990002720FFF79BFD01212820FFF797FD01215C
:1019A0002920FFF793FD01212A20FFF78FFD012158
:1019B0002B20FFF78BFD01212C20FFF787FD012154
:1019C0002D20FFF783FD08BD680000102DE9F843C6
:1019D00080468946FFF7BAFE06460F46FFF7B6FE79
:1019E000841B61EB0705064BD3E9002340464946BB
:1019F00000F008F88D4208BF8442EFD3BDE8F883B9
:101A00004000001053B94AB9002908BF00281CBF84
:101A10004FF0FF314FF0FF3000F074B9ADF1080C1A
:101A20006DE904CE00F006F8DDF804E0DDE90223FC
:101A300004B070472DE9F047089E04468846002B05
:101A400040F085808A42154648D9B2FA82F24AB1FE
:101A5000C2F1200701FA02F320FA07F7954047EA9E
:101A6000030894404FEA154E230CB8FBFEF71FFA0B
:101A700085FC0EFB178843EA084307FB0CF19942EB
:101A800009D9EB1807F1FF3080F0E380994240F26A
:101A9000E080023F2B445B1AA4B2B3FBFEF00EFBC6
:101AA000103344EA034400FB0CFCA44509D92C196B
:101AB00000F1FF3380F0CB80A44540F2C8800238AB
:101AC0002C4440EA0740A4EB0C0400271EB1D4408C
:101AD0000023C6E900433946BDE8F087002A53D009
:101AE000B2FA82F2002A40F0B680491B4FEA154E46
:101AF0001FFA85F80127B1FBFEFC230C0EFB1C111D
:101B000043EA014308FB0CF1994207D9EB180CF1A9
:101B1000FF3002D2994200F2EC808446591AA3B2F7
:101B2000B1FBFEF00EFB101443EA044408FB00F87E
:101B3000A04507D92C1900F1FF3302D2A04500F2CD
:101B4000DC801846A4EB080440EA0C40BEE78B4258
:101B500008D9002E78D00027C6E90001384639465A
:101B6000BDE8F087B3FA83F77FB98B4202D3824294
:101B700000F2BD80841A61EB030301209846002E19
:101B8000A9D0C6E90048A6E7FFDEC7F12005BB40A3
:101B900022FA05FC4CEA030C01FA07F420FA05F8D6
:101BA00021FA05F34FEA1C4E48EA0404B3FBFEF9A0
:101BB000210C0EFB19331FFA8CF841EA034309FB91
:101BC00008FA9A4502FA07F200FA07F10BD91CEB62
:101BD000030309F1FF3080F088809A4540F2858048
:101BE000A9F102096344A3EB0A03A4B2B3FBFEF01C
:101BF0000EFB103344EA034400FB08F8A04508D963
:101C00001CEB040400F1FF336BD2A04569D9023804
:101C1000644440EA0940A4EB0804A0FB02894C4557
:101C2000C6464B4654D351D0002E69D0B1EB0E02BC
:101C300064EB030404FA05F522FA07F3FC401D43A4
:101C4000C6E90054002746E73746304643E71846C2
:101C500037E707461FE7C2F1200320FA03F7954054
:101C600001FA02F021FA03F34FEA154E3843010C52
:101C7000B3FBFEF71FFA85F80EFB173341EA034169
:101C800007FB08F38B4204FA02F407D9691807F13D
:101C9000FF3C28D28B4226D9023F2944CB1A81B27D
:101CA000B3FBFEF00EFB103341EA034100FB08F3E7
:101CB0008B4207D9691800F1FF3C10D28B420ED934
:101CC00002382944C91A40EA074714E74145ABD214
:101CD000B8EB020E69EB0C0201381346A4E760462C
:101CE000F0E7184695E76746D8E781467BE7384630
:101CF00045E7ACF1020C2B4410E702382C4421E7F5
:101D00003746E8E6704700BF70B50D4E0D4D761BA7
:101D1000B61006D00024013455F8043B9847A6427B
:101D2000F9D1094E094D761BFEF767FCB61006D0B7
:101D30000024013455F8043B9847A642F9D170BD00
:101D4000C821001AC821001ACC21001AC821001A83
:101D5000F0B4860746D0541E002A3CD0CAB20346CF
:101D600002E014F1FF3436D303F8012B9D07F8D1BC
:101D7000032C29D9CDB245EA05250F2C45EA0545A6
:101D800033D9A4F11006360903F1200707EB061733
:101D900003F1100242E9045542E902551032BA42F9
:101DA000F8D1721C14F00C0F03EB021204F00F06B2
:101DB00013D0331F23F003030433134442F8045BAE
:101DC0009342FBD106F003042CB1C9B21C4403F8C2
:101DD000011B9C42FBD1F0BC704734461346002CDB
:101DE000F3D1F8E714460346C2E71A462646E0E771
:101DF000202020202020202020202A2A2A2A2A2AA7
:101E00002A2A2A2A2A2A2A2A2A2A2A2A2A2A2A2A32
:101E10002A2A2A2A2A2A2A2A2A2A2A2A2A2A2A2A22
:101E20002A2A2A2A2A2A2A2A2A2A2A2A2A2A2A2A12
:101E30002A2A2A2A2A2A2A2A2A2A2A2A2A2A2A2A02
:101E40002A2A2A2A2A2A2A2A2A2A2A2A2A0D0A0059
:101E5000202020202020202020202020202A2A2A64
:101E60002A2A2A20202020204D454E552050524914
:101E70004E434950414C2044452050414E454C2052
:101E800044452043414A412046554552544520206F
:101E90002020202A2A2A2A2A0D0A00002020202079
:101EA0002020202020202020202020202020202032
:101EB0002020202020202020202020202020204101
:101EC000504552545552412044452043414A4120F7
:101ED0004655455254450D0A0000000020202020A0
:101EE0002020202020202020494E475245534520C5
:101EF000434F4449474F2044452053454755524995
:101F0000444144205920434F4E4649524D452043B9
:101F10004F4E205445434C4120310D0A00FFFFFF36
:101F2000010F0101020044000201440002024400CA
:101F3000020A4000020B4000020C40000100500069
:101F4000010150000102500001065000060150003E
:101F50000604500006055000060754000608540009
:101F600006095000060A5000060B5000060C5000EF
:101F70000F04F0000103D5000104D500070116008D
:101F800007025600020352000204520009055200E3
:101F90000906570006025700000000000004000870
:101FA00000090109050005010502000E010B010CE5
:101FB000030003030304050F0510030503060307CD
:101FC0000208FFFF001BB700000101000909010022
:101FD0000A090100010701010209010006090100C7
:101FE0000C0901010D0901000E0901000F09010092
:101FF0001009010011090100120901001309010073
:1020000014110100191101001A1101001B11010026
:1020100001020408030F0F0FFF000000000005007D
:102020000A00200024000900400040000500600074
:10203000A6000400C000C3000200E000E0000100B0
:1020400000010001030020012001060040014001C1
:102050000C00420142011900620162011300820179
:1020600082011200A201A2011100C201C2011000EE
:10207000E201E2010F00020202020E00220222022D
:102080000D00230223021C00C201A2018201620191
:1020900081008200A100A2000401000201070500E6
:1020A000030D0105000108040200020204030002FE
:1020B000030400000200070400030C0302040509E6
:1020C00003010405080203040503020404050406D1
:1020D0000C000208060B00030706090003050607AB
:1020E00004050F06040003030404000204040500B1
:1020F00002050406000206040804050C040A04058F
:102100000E010300000A011400000F011200000D6F
:10211000011100000C0110000003070700030F006D
:10212000010000010000000000060A000306060886
:102130000405100605000304060100030004090459
:10214000050D010400000B010F000002010000005A
:102150000401010000080102000009010600010954
:102160000200040500020104050102020405020246
:102170000A00000E020B00010B020C00010CFFFF15
:10218000001008400604020605021800001008406E
:102190000905070906071800002008400000000094
:1021A0000000190000100C400701060702061A0083
:1021B00000100C40010F010110011A0000200C401A
:0821C0000203020204021B00ED
:0421C8005108001AA0
:0821CC0068F8FF7F010000002C
:1021D40000100A4022000000690A001A00000000F2
:1021E40000000000000000000000000000000E409D
:1021F40001000000690A001A00000000000000004D
:10220400000000000000000000CB280CFFFFFFFFCF
:082214000100000000000000C1
:040000051A00057167
:00000001FF
